:020000040800F2
:10000000D80700209D010008F5180008AD1700086A
:1000100000000000000000000000000000000000E0
:10002000000000000000000000000000D7190008D8
:100030000000000000000000D5190008E1190008C8
:10004000AF010008AF010008AF010008AF010008D0
:10005000AF010008AF010008AF010008AF010008C0
:1000600000000000AF010008AF010008AF01000868
:10007000AF010008AF01000800000000791A000875
:100080000000000000000000000000000000000070
:10009000AF01000800000000AF010008AF01000838
:1000A00000000000AF010008000000000000000098
:1000B000E51F0008AF01000800000000000000007C
:1000C00000F002F800F03EF80CA030C80838241800
:1000D0002D18A246671EAB4654465D46AC4201D180
:1000E00000F030F87E460F3E0FCCB6460126334274
:1000F00000D0FB1AA246AB46334318473820000015
:1001000058200000103A02D378C878C1FAD85207B4
:1001100001D330C830C101D504680C6070470000BD
:100120000023002400250026103A01D378C1FBD813
:10013000520700D330C100D50B6070471FB51FBDFB
:1001400010B510BD00F097F91146FFF7F7FF01F069
:100150009FFF00F0AFF903B4FFF7F2FF03BC00F01C
:10016000B5F9000070B505460C46164602E00FCC06
:100170000FC5103E102EFAD2082E02D303CC03C5B1
:10018000083E042E07D301CC01C5361F03E02178B9
:100190002970641C6D1C761EF9D270BD074880471B
:1001A00007480047FEE7FEE7FEE7FEE7FEE7FEE75B
:1001B00004480549054A064B70470000751A0008B7
:1001C000C1000008D8010020D8070020D803002073
:1001D000D8030020FEB5054610460C46184373D0E0
:1001E000AE468C460020AD1A01469C4167D3664658
:1001F000002701243D46B61A9D4102D313463A46D4
:100200002124654676462F04360C3E432D0CB61A43
:100210009D4104D3150C1B042B4312041034654676
:1002200076462F06360A3E432D0AB61A9D4104D360
:10023000150E1B022B4312020834654676462F0723
:1002400036093E432D09B61A9D4104D3150F1B01F3
:100250002B431201241D65467646AF07B6083E4380
:10026000AD08B61A9D4104D3950F9B002B43920015
:10027000A41C65467646EF0776083E436D08B61A1D
:100280009D411AD392185B41641C16E00018764613
:1002900065464941B71A9D410191009009D36046D6
:1002A000B11A98418E468446009801990025401C59
:1002B0006941DD0752082A435B08641EE6D5724691
:1002C000634603B0F0BDFFE700200146C046C046CC
:1002D0002A462346F5E701E004C0091F0429FBD2A2
:1002E0008B0701D50280801CC90700D002707047BF
:1002F00000290BD0C30702D00270401C491E0229FE
:1003000004D3830702D50280801C891EE3E7002204
:10031000EEE70022DFE7002203098B422CD3030A19
:100320008B4211D300239C464EE003460B433CD442
:10033000002243088B4231D303098B421CD3030AAA
:100340008B4201D394463FE0C3098B4201D3CB01DA
:10035000C01A524183098B4201D38B01C01A52410A
:1003600043098B4201D34B01C01A524103098B420E
:1003700001D30B01C01A5241C3088B4201D3CB00F9
:10038000C01A524183088B4201D38B00C01A5241DC
:1003900043088B4201D34B00C01A5241411A00D28C
:1003A00001465241104670475DE0CA0F00D04942F5
:1003B000031000D34042534000229C4603098B4265
:1003C0002DD3030A8B4212D3FC22890112BA030AED
:1003D0008B420CD3890192118B4208D3890192116F
:1003E0008B4204D389013AD0921100E08909C309F4
:1003F0008B4201D3CB01C01A524183098B4201D3F6
:100400008B01C01A524143098B4201D34B01C01AE0
:10041000524103098B4201D30B01C01A5241C30858
:100420008B4201D3CB00C01A524183088B4201D3C7
:100430008B00C01A5241D9D243088B4201D34B00E2
:10044000C01A5241411A00D20146634652415B1024
:10045000104601D34042002B00D549427047634605
:100460005B1000D3404201B50020C046C04602BD2B
:10047000704770477047754600F024F8AE46050097
:1004800069465346C008C000854618B020B5FFF73E
:100490008FFE60BC00274908B6460026C0C5C0C50F
:1004A000C0C5C0C5C0C5C0C5C0C5C0C5403D490068
:1004B0008D46704710B50446C046C0462046FFF73B
:1004C0004AFE10BD004870477801002001491820FD
:1004D000ABBEFEE7260002007047000070B50D4A73
:1004E00000230D4D0EE0C45C62400024D60702D00C
:1004F00052086A4000E05208641CE4B2082CF5D3AC
:100500005B1CDBB28B42EED3100A1102084380B2AF
:1005100070BD0000FFFF000001A0000010B50849F9
:1005200000224A6107494B684C1523434B604B68D6
:10053000082423434B60C009C001026010BD0000C5
:10054000600100200020024010B5214A002190697E
:10055000C305204804D5416902231943416191151F
:1005600093699B0505D543690124234343616302D5
:10057000194393695B0505D5436908242343436107
:10058000E301194393691B0505D5436904242343FB
:1005900043616302194393699B0405D543691024A1
:1005A000234343616302194393699B0304D5446960
:1005B00020231C43446119439369DB0305D5436938
:1005C000402423434361A0020143916110BD000018
:1005D000002002406001002070B5054600F050FA8E
:1005E0000646184C0AE0681C08D0002D04D000F024
:1005F00047FA801BA84201D9032070BDA069C0073B
:10060000F1D1A069800701D50220A061A069C005D1
:1006100011D4A06980050ED4A06940050BD4A0694F
:10062000000508D4A069800405D4A069800302D421
:10063000A069C00303D5FFF787FF012070BD00202C
:1006400070BD000000200240F0B58BB00022174CB6
:1006500008921CCC05AD1CC56C46154E00222546E3
:1006600093009F19521C3F6FD2B2EF50042AF7D368
:100670004000215272B600F0F9F808A905A800F070
:100680008DF80B4E00247036A0002A5881190120E5
:1006900000F0CEF8641CE4B2042CF5D300F0BAF8F4
:1006A00000F04EFA62B60BB0F0BD00000421000865
:1006B000807F0008F0B591B018222D4906A8FFF7F9
:1006C00051FD2B49182218316846FFF74BFD39249C
:1006D000062568002F1806A80526C25D36072021CA
:1006E000304600F0C6F906A83F187A784021304617
:1006F00000F0BFF9BA788021304600F0BAF9012045
:1007000000F03AF8072778003E186846825D052019
:100710000121000700F0ADF968463618052072780F
:100720000221000700F0A5F90520B278102100078A
:1007300000F09FF9012000F01FF8641EE4B20221CE
:100740000C4800F091F900280AD07F1E7FB2002FDC
:10075000D9DA6D1E6DB2002DBBDA002011B0F0BDEC
:10076000072C01D2E41E00E0A41FE0B2F6E700006F
:10077000D42000080004005070B5044600F080F951
:100780000546601C02D004480078241800F078F96F
:10079000401BA042FAD370BD08000020F8B51A4EE5
:1007A0000546307C0F46012807D0012030741748D9
:1007B000FFF712FF010002D021E00220F8BD002067
:1007C000C04338606C6814E02046FFF7A7FE0F486E
:1007D000FFF702FF01460E48426808239A43426031
:1007E000426843159A434260002901D03C6006E00C
:1007F0008034A8686A68C0018018A042E4D800204C
:1008000030740846F8BD00006001002050C30000AD
:1008100000200240054841680222114341604168BE
:100820000122114341600020704700000020024077
:10083000F8B50C4C1646207C0F46012808D0012044
:1008400020740948FFF7C8FE0025002802D006E002
:100850000220F8BD65613E600348FFF7BDFE2574C8
:10086000F8BD00006001002050C30000114841683D
:10087000C9070BD0EFF3108172B60F4AC2600F4A5E
:10088000C26081F310884168C9070ED141688907A9
:100890000DD5EFF3108172B6094A0261094A02616F
:1008A00081F310884068800701D50120704700203F
:1008B0007047000000200240EFCDAB890504030221
:1008C000BFAE9D8C16151413F8B500230324012523
:1008D000B8E032462E469E40B446324079D00E797A
:1008E000B607B60F012E01D0022E17D18668274613
:1008F000B6465E00B74000967646BE43B646CF6821
:10090000009EB74076463743876046686746BE43D9
:100910000F79FF06FF0F9F40374347600E79F6437C
:10092000B6070ED0C6682746B4465E00B646B74046
:100930006646BE43B4468F687646B7406646374340
:10094000C7600E79B607B60F022E14D1DE08B600C6
:1009500036180096366A5F07B446FE0E0F27B64675
:10096000B7406646BE43B4460F697646B740664612
:100970003743009E376206682746B4465E00B64697
:10098000B7406646BE430F79B446BF07BF0F7646F1
:10099000B7406646374307604E68B603B60F50D07F
:1009A0002B4F7E6B2E437E639F082A4EBF00BE19DD
:1009B0000096B6680F27B4469E07360FB646B74076
:1009C0006646BE4305273F07B446B84202D100271A
:1009D00010E036E0204FB84201D101270AE01F4F56
:1009E000B84201D1022705E01D4FB84201D10527C9
:1009F00000E006277646B74066463743009EB7605C
:100A0000184EB6684F689643FF0200D51643154F3F
:100A1000BE60FE684F689643BF0200D51643114F73
:100A2000FE607E684F689643BF0300D516430D4FA6
:100A30007E603E684F689643FF0300D51643094A1F
:100A400016605B1C0A681646DA4000D041E7F8BD24
:100A50000010024000000140000400500008005057
:100A6000001C0050000401400069084000D0012033
:100A70007047002A01D08161704781627047000091
:100A80000148806870470000080000200248816823
:100A900002788918816070470800002010B5084866
:100AA00000240168402211430160032000F00AF88D
:100AB000002801D0012401E000F026F8204610BDF6
:100AC0000020024070B504460D4D7D202978C000FD
:100AD000FFF721FC01460B480068FFF71CFC00F003
:100AE0002DFC002809D1042C07D200222146401EEB
:100AF00000F022F800206C6070BD012070BD000085
:100B000008000020140000200448416B012211431A
:100B10004163816B020411438163704700100240FE
:100B2000002805DBC106C90E012088400149086084
:100B30007047000000E100E010B501F087FA10BD39
:100B4000BFF34F8F04490348C860BFF34F8F00BF06
:100B5000FDE700000400FA0500ED00E0F8B50446EA
:100B600000780027504D800674D54F4E403EB06B44
:100B7000C00004D4B06BA9050843B06301274B48FB
:100B80000168C90511D40168821511430160FFF79E
:100B900077FF009005E0FFF773FF0099401A642883
:100BA00037D842480068C005F5D5326803210905E9
:100BB00060680A400140914208D08103890F0329EF
:100BC00004D13168890301D50120F8BD2A690321C8
:100BD00009040A4022D0084090421FD020788006A5
:100BE00031D528692A6988430121C9040A432A6149
:100BF0002A698A432A612861C0050FD5FFF740FFA3
:100C0000009008E0FFF73CFF0099411A2848814214
:100C100001D90320F8BD28698005F3D52078800626
:100C200011D561688803800F032805D1326800055B
:100C3000824301400A43326028690322616812043A
:100C4000114008432861002F04D0B16B0120000738
:100C50008143B1632078800705D5E8680C2188437B
:100C6000A1680843E8602078400706D5E8680321BA
:100C700089028843E1680843E8602078000706D5C8
:100C8000E86803210903884321690843E860207864
:100C9000000606D5E8680321890488436169084392
:100CA000E8600020F8BD00004010024000700040E5
:100CB00088130000F8B50E46050038D05E4800687D
:100CC000C007C00FB04214D25B4C206840084000FF
:100CD00030432060FFF7D4FE074605E0FFF7D0FE63
:100CE000C11B564881427AD82068C007C00FB04265
:100CF000F4D12878524C800705D5E068F02188436C
:100D0000A9680843E0602878C00752D068680228C4
:100D100006D0032807D0216801280AD0890504E0FD
:100D20002168890301E021688901002903DB012092
:100D3000F8BD4907F9E7E168890889000143E160E6
:100D4000FFF79EFE0746686802280AD0032814D0E1
:100D500001281ED029E0FFF793FEC11B37488142CE
:100D60003DD8E0680007800F0228F4D121E0FFF7AA
:100D700087FEC11B3148814231D8E0680007800FEF
:100D80000328F4D115E0FFF77BFEC11B2B488142FD
:100D900025D8E0680007800F0128F4D109E0FFF7AB
:100DA0006FFEC11B2548814219D8E0680007800FFB
:100DB000F5D121480168C907C90FB14217D90168A7
:100DC0004908490031430160FFF75AFE074608E031
:100DD00005E0FFF755FEC11B1848814201D90320E9
:100DE000F8BD15480068C007C00FB042F1D128789F
:100DF000400706D5E068072109028843E9680843EF
:100E0000E0602878000707D5E0680721C902884319
:100E10002969C9000843E06000F03AF8E168094A2E
:100E20000906090F515CC840074908600748006877
:100E3000FFF748FEF8BD00000020024088130000C4
:100E40000010024010210008140000200C000020B7
:100E5000044805490068C968044A4905490F515CBE
:100E6000C8407047140000200010024029210008EB
:100E7000044805490068C968044A8904490F515C5F
:100E8000C8407047140000200010024029210008CB
:100E900010B5184AD1680C20084004280BD0082847
:100EA00010D00C2810D050680004410F0120C0035E
:100EB000491C884010BD1068C00601D50E4810BD01
:100EC0000E4810BD0E4810BD88020E4B000F185C76
:100ED0000902D368890F491CDB0301D5084A05E0E4
:100EE0001268D20601D5044A00E0044A5043FFF7D5
:100EF00012FA10BD0010024000093D000024F40069
:100F000000127A0020210008FEB505007ED0F74CC3
:100F1000E7680C20E66807400120000406402878B6
:100F2000C00747D0082F05D00C2F0AD1012000049C
:100F3000864206D1206880033CD568680028E5D049
:100F400038E0012069680004814203D1216801432F
:100F5000216011E0052301221B04920499422168BB
:100F600002D111432160F1E78143216021680140F2
:100F70000091206890432060686800280DD0FFF73A
:100F80007FFD009005E0FFF77BFD0099401A642883
:100F90007ED820688003F6D50CE0FFF771FD009045
:100FA00005E0FFF76DFD0099401A6428F0D820682D
:100FB0008003F6D4287880075DD5E868810604D5DB
:100FC000226820210A43226088430923042F0DD080
:100FD0000C2F01D1002E09D000283CD02168994364
:100FE00001432160FFF74CFD064628E021684907D0
:100FF00001D500288AD061681F22120291432A6914
:101000001202114361602168994300E091E10143BC
:101010002160FFF73DFFE16809060A0FB449895CCA
:10102000C840B4490860B4480068FFF74BFD002889
:1010300074D120E0FFF724FD801B0228A8D8206887
:101040004007F7D560681F21090288432969090212
:10105000084360600FE02068400840002060FFF710
:101060000FFD064604E0FFF70BFD801B02288FD81A
:1010700020684007F7D42878C00661D5002F0DD02E
:10108000A86900284BD02068FF210131084300E007
:10109000C6E02060FFF7F4FC06462DE020688005DE
:1010A00002D5A8690028A5D06068072149038843B4
:1010B000296A084360606068297F0002000A090607
:1010C00008436060286A410B0120C003491C884026
:1010D000E16809060A0F8649895CC84085490860AD
:1010E00085480068FFF7EEFC002817D128E0FFF7DD
:1010F000C7FC801B0228A1D820688005F7D560684E
:10110000072149038843296A084360606068297F92
:101110000002000A09060843606011E0E1E021686E
:10112000FF20013081432160FFF7AAFC064604E05E
:10113000FFF7A6FC801B022872D820688005F7D430
:1011400028786E4E000724D568690028306910D0D1
:10115000012108433061FFF793FC009005E0FFF7A1
:101160008FFC0099401A02285AD830698007F6D5BA
:101170000FE0400840003061FFF782FC009005E07E
:10118000FFF77EFC0099401A022849D83069800791
:10119000F6D42878400765D500200290A06BC000E7
:1011A00006D4A06B012109070843A0630120029027
:1011B00053480168C90511D40168821511430160C3
:1011C000FFF75EFC009005E0FFF75AFC0099401A1B
:1011D000642825D84A480068C005F5D5FF20AA68CC
:1011E0000130824203D131690143316111E00121B3
:1011F0008902002A07D005231B029A4203D13269D3
:101200000A433261EFE732698243326130698843D1
:101210003061A86800280FD0FFF732FC009007E08B
:101220005EE0FFF72DFC0099411A3648814257D8FD
:1012300030698005F5D50DE0FFF722FC009006E04F
:10124000FFF71EFC0099411A2E48814248D83069A8
:101250008005F5D40298002804D0A06B012109076D
:101260008843A063686A002865D00C2F4CD0012603
:1012700036060228206805D0B0432060FFF700FC46
:1012800005462FE0B0432060FFF7FAFB074604E075
:10129000FFF7F6FBC01B022822D820688001F7D494
:1012A000E96AA86AE2680843296BFD231B049A4394
:1012B00011430843E060206830432060FFF7E0FB03
:1012C000054604E0FFF7DCFB401B022808D8206835
:1012D0008001F7D52FE0FFF7D3FB401B022801D98F
:1012E0000320FEBD20688001F5D424E000100240F8
:1012F00010210008140000200C00002040100240C3
:1013000000700040881300000128EAD0E068012145
:101310000904AA6A014091420BD10F218904EA6AAB
:101320000140914205D1032189050840296B88427B
:1013300001D00120FEBD0020FEBD0000094910B50E
:10134000401E884201D9012010BD074C6061032175
:10135000081F00F07BFE0020A06107202061002014
:1013600010BD0000FFFFFF0000E000E0F0B5024606
:101370002032137E012B1ED00125157602235376D1
:1013800006687468B3687027BC430F6827437760AA
:101390000068AC07A04205D0084CA04202D0084C1F
:1013A000A04204D180244968A34319438160557643
:1013B00000201076F0BD0220F0BD000000080140C2
:1013C000001401402030407E704770B5050005D004
:1013D0002C462034607E002802D006E0012070BD3B
:1013E00000202076284600F00FF802206076291DA4
:1013F000286800F05FFB0120A077A076E0762077D8
:1014000060776076002070BD10B500680121890703
:1014100088420CD10648816B01221143816300226E
:1014200011460F20FFF788FB0F20FFF779FB10BD57
:1014300000100240F8B5054604462035287E0026F7
:10144000012817D00120287602206876226890684B
:101450007727FF23B8431B02984390600868502801
:1014600038D00EDC20284FD006DC00284CD01028C5
:101470001ED149E00220F8BD302845D0402817D1C0
:101480003AE060282ED0702819D001221203801A69
:101490000FD090420CD1CB684A688968206800F070
:1014A00039FB20688168012292031143816000E0CA
:1014B000012601206876002028763046F8BDCB68EA
:1014C0004A688968206800F025FB216888683843ED
:1014D0008860EEE7CA684968206800F02EFB50215A
:1014E000206806E0CA684968206800F037FB602180
:1014F000206800F01AFBDCE7CA684968206800F041
:101500001CFB40212068F4E7226801461046F0E702
:101510007047F8B504460068C66805690027A90742
:10152000002913DAB10711D5F91E016101202076D7
:10153000206880698007204602D0FFF7E9FF04E0B9
:1015400000F065F8204600F063F82776680716D5A6
:10155000700714D504202168C0430861022020765A
:10156000206880698005800F204602D0FFF7D0FFF9
:1015700004E000F04CF8204600F04AF827762807EF
:1015800015D5300713D508202168C0430861042011
:1015900020762068C0698007204602D0FFF7B8FF98
:1015A00004E000F034F8204600F032F82776E80630
:1015B00016D5F00614D510202168C0430861082014
:1015C00020762068C0698005800F204602D0FFF792
:1015D0009FFF04E000F01BF8204600F019F8277682
:1015E000E80708D0F00706D001202168C043086151
:1015F000204600F00EF8680608D5700606D5402093
:101600002168C0430861204600F004F8F8BD704727
:1016100070477047704710B5040003D0E06F002892
:1016200002D007E0012010BD00217820015520469E
:1016300000F026F82420E067206801684908490086
:101640000160606A002802D0204600F09AFA204625
:1016500000F08EFB0128E6D0206841680922D20202
:1016600091434160206881682A229143816020680B
:101670000168012211430160204600F0E7FA10BD25
:1016800010B586B0044614216846FEF742FE15499F
:101690002068884223D11448816B012252041143EF
:1016A0008163C16A01221143C162C06A6946104068
:1016B00005900C2000900220019000200290032051
:1016C00003900420049005200007FFF7FDF8002296
:1016D00011461C20FFF730FA1C20FFF721FA06B054
:1016E00010BD00000044004000100240FFB5044659
:1016F000C06F83B017460D46202802D0022007B0E5
:10170000F0BD002D0BD0002F09D00120A1680003EF
:10171000814206D12069002803D1E80701D00120C9
:10172000EDE70021842001512120E067FFF7A8F9AF
:10173000264640360190378277820120A168000357
:10174000814202D12069002802D02F46002511E0F5
:1017500000270FE000228021204600F0F7FB002840
:1017600015D1002F17D02168387888627F1C708AC5
:10177000401E7082708A019B002806980090E9D173
:1017800000224021204600F0E1FB00280AD0202062
:10179000E0670320B3E728882168C005C00D886290
:1017A000AD1CE4E72020E0670020A8E7FEE700008A
:1017B00070B586B014216846FEF7ABFD1448C16AC7
:1017C00001252943C162C16A29400591C16A0224E9
:1017D0002143C162C06A05262040360705900022D9
:1017E000F3213046FFF745F9F3200195029500906B
:1017F0000025694630460395FFF766F8019569466E
:10180000044802950094FFF75FF806B070BD000031
:10181000001002400004005030B587B0002500954C
:1018200001201A4C019502950395049580070595B2
:1018300020601748A5606060FF2025612C3065613D
:10184000E0602046FFF7C1FD002801D072B6FEE738
:1018500001200003009069460C48FFF7EBFD0028CB
:1018600001D072B6FEE7049504A908480595FFF774
:101870007DFD002801D072B6FEE720684562206831
:10188000C16801221143C16007B030BD18000020BB
:101890007F0C000010B5154C1348206014484B21F4
:1018A000408A4901884205D04900884202D0490057
:1018B000884201D1606000E061600020A060E060CB
:1018C0002061A061E0610C212062616160620748D3
:1018D000FFF7A1FE002801D072B6FEE7206801687C
:1018E00020221143016010BD004400405800002038
:1018F000E07F0008FEE7000070B504460D46881E34
:10190000C1B288B02046FEF7E9FD0023039304939B
:10191000059301AA02A9069300F05EF860190093EE
:1019200020386A46817F127A914221D16946C07F70
:10193000097988421CD1254920780A78904201D043
:10194000002815D160780026F643032812D0062817
:101950000ED133462A4621461D48FFF7C7FE61795E
:1019600068460170217941700188E078FEF76CFECD
:1019700008B070BD1549E8070223891C0028684695
:1019800002736278427303AD83731BD0E2784270B6
:1019900022790270008809884118684601804178E0
:1019A000C1730178017405212846FEF797FDAA1D31
:1019B000691D00F011F83346072203A90448FFF718
:1019C00095FED5E74A78C2730978EBE7000000205E
:1019D00058000020704770471070000A0870704768
:1019E00010B5FFF753F810BD30B599B034216846F3
:1019F000FEF78FFC14210DA8FEF78BFC182112A80E
:101A0000FEF787FC1A4801680322D2029143C214F0
:101A10008918016002250120039010200995049087
:101A200080030B900001009500240C900A946846F6
:101A3000FFF76AFA002801D072B6FEE70F200D907A
:101A400003200E900F941094012111940DA8FFF71C
:101A500031F9002801D072B6FEE712A8129514944D
:101A6000FFF77CF8002801D072B6FEE719B030BD50
:101A7000007000407047000010B50A480068016A15
:101A8000094A114203D10168490849000160074C25
:101A900007482178FFF730FF002020800148FFF73A
:101AA00038FD10BD180000201111000004000020B6
:101AB000E000002070B5026801239B07134C144D11
:101AC000984203D0A04201D0A84203D17026B2436D
:101AD0004E683243984203D0A04201D0A84204D1BC
:101AE00003231B029A43CB681A4380239A430B6952
:101AF0001A438B68C3620968816201680423194331
:101B0000016001214161026070BD000000080140D8
:101B10000014014030B58468FF252D021B021343D9
:101B2000AC430B432343836030BD826870239A43E8
:101B30000A4307210A438260704730B5036A046A8A
:101B40006408640004628469F025AC4312012243F6
:101B50000A24A3430B438261036230BD30B5046A9B
:101B6000036A1025AB43036283690F252D0312031B
:101B7000AB431A43A0239C430901214382610162C4
:101B800030BD10B5818C090707D501684A6801236B
:101B9000DB039A43436B1A434A60818CC90707D021
:101BA00001684A6801235B049A43836A1A434A60C6
:101BB000818C890707D501684A6801231B049A4371
:101BC000C36A1A434A60818C490707D501684A688D
:101BD00001239B049A43036B1A434A60818CC90614
:101BE00007D50268916801231B039943836B19434E
:101BF0009160818C890607D501688A6801235B039F
:101C00009A43C36B1A438A60818C490612D50368D4
:101C10005A6801210905046C8A4322435A60026C08
:101C20008A4207D10268516803235B059943436CDC
:101C300019435160818C090607D501684A68012360
:101C4000DB04806C9A4302434A6010BDFEB5074630
:101C50000025803704467D60FEF712FF0190206862
:101C60000068264600076036002819DA27480090E9
:101C70000121002249052046019B00F067F9002858
:101C80000ED0EFF31080012181F3108821680A68DB
:101C900080239A430A6080F310882020E06729E0BF
:101CA00020680068400728D51848009001210022CC
:101CB00089052046019B00F049F900281DD0EFF36B
:101CC0001080012181F3108821680A68FF232133E5
:101CD0009A430A6080F31088EFF31080012181F3AA
:101CE000108821688A68520852008A6080F3108840
:101CF0002020386035760320FEBD2020E067386064
:101D00002566656635760020FEBD0000FFFFFF01F9
:101D100010B5EFF31081012282F310880268136876
:101D2000FF242134A343136081F31088EFF3108163
:101D3000012282F31088026893685B085B0093605D
:101D400081F31088016E01290BD1EFF3108101227C
:101D500082F31088026813681024A343136081F390
:101D60001088202280210A5000210166816610BD62
:101D7000F8B50446016880682369E6691843636919
:101D80000025334318436A4A0B686A4E33400343C5
:101D90000B602068416803231B039943E3681943E0
:101DA00041602168A069914201D0236A18438B6881
:101DB0000B263602B34303438B605F4923685F48B9
:101DC0008B420AD1C0680C21084027D0042829D0B2
:101DD000082825D00C2811D10EE093420ED1C168FD
:101DE00003208002014019D001208002091A19D075
:101DF000091A15D0814201D1082700E010274F4968
:101E00004F4840398600934234D1002F0CD0022F26
:101E10000DD0042F10D0082F7ED128E00027EEE748
:101E20000227ECE70427EAE7FFF712F806E0096863
:101E3000C90605D4304603E0FFF72AF8002872D01F
:101E4000626851005118814266D81103814263D300
:101E5000010E06025008002330185941FEF7BAF966
:101E600003210902374A411A91425AD954E001200C
:101E7000C003E5E70122E369D20393422AD13B0084
:101E800000F0D6F80906090C4A114A4A4A264A00C7
:101E9000FEF7DEFF09E0FEF7EBFF06E00968C90682
:101EA00005D4304603E0FEF7F3FF00283BD061681D
:101EB00040004A088018FEF72EFA0146224A1039DF
:101EC000914229D8511C01400007400F084328E0E7
:101ED0001046ECE73B0000F0ABF80906090C1F11B7
:101EE0001F1F1F211F00FEF7B3FF09E0FEF7C0FF11
:101EF00006E00968C90605D4304603E0FEF7C8FFCE
:101F0000002810D061684A081018FEF704FA02464B
:101F10000D49103A8A4203D9012504E01046F1E741
:101F200080B22168C8600020A066E0662846F8BD3F
:101F300000480040F369FFEF0044004040100240B9
:101F400000093D00FFFC0F00EFFF0000FFB5064653
:101F50008036054681B00F460446603534E00A9865
:101F6000401C31D0FEF78CFD0499411A0A98814239
:101F700018D8002816D020680168490724D5802F7A
:101F800022D0402F20D0C169C94309070CD40827AB
:101F900007622046FFF7BCFE77600020287601200C
:101FA00005B0F0BD0320FBE7C069C04300050BD4BA
:101FB00001202168C00208622046FFF7A9FE202008
:101FC000706000202876EDE72068C16938468843B4
:101FD00005D0002103988142C1D00020E0E7012113
:101FE000F8E7000010B50E48C169002912D0C16998
:101FF000416A0D4A0B4B10881954401C10800B4845
:10200000FFF7E0F90949022805D0086801680122B4
:102010001143016010BD09680020486210BD000036
:1020200000440040E00000200400002018000020D0
:1020300030B47446641E2578641CAB4200D21D4641
:10204000635D5B00E31830BC184700008307FF2284
:10205000DB0E9A408907090E9940002808DB8308A7
:1020600009489B001B181868904308431860704784
:102070000007000F0838830804489B001B18D86924
:1020800090430843D861704700E400E000ED00E0B1
:10209000FEF704FDFFF7A8FCFFF78AFBFFF7BCFB88
:1020A000FFF7F8FB0948017C09484A1EF72A00D3CC
:1020B00001217D25064CED000170A41C2846FEF789
:1020C0005BFBFEF7F7FA2080F8E70000E07F0008EE
:1020D00000000020000001000101010001010100D9
:1020E00000010001000000000000000001010101EA
:1020F00000010101000000000100000001000000DB
:102100000100010100000000F07F00080100000054
:102110000000000000000000010203040607080997
:10212000030406080C101820300000000001020310
:1021300004000000542100080000002018000000E6
:10214000040100086C21000818000020C0070000EE
:102150002001000800000000000000000100000055
:0C2160000400000000000000000020004F
:04000005080000C12E
:00000001FF
